:020000040800F2
:10000000700D002099010008D90F0008A90F000801
:10001000D50F0008130D0008511200080000000061
:10002000000000000000000000000000ED100008CB
:100030007F0D000800000000DD0F0008D911000846
:1000400055120008DB0F00083D120008E7100008F9
:100050008F0D000871100008810D0008850D000843
:10006000870D0008890D00088B0D0008B3010008FA
:10007000730D0008750D0008770D0008790D000854
:100080007B0D00087D0D0008110D0008B30100086C
:100090004F120008B3010008B30100088D0D0008DD
:1000A0003F120008451200084312000841120008E0
:1000B00047120008491200084B120008CF0F000831
:1000C000CD0F0008D30F0008D10F0008E910000879
:1000D000EB100008B3010008B3010008B3010008E9
:1000E000830D0008E51000084D12000800F002F82A
:1000F00000F042F80AA090E8000C82448344AAF180
:100100000107DA4501D100F037F8AFF2090EBAE87D
:100110000F0013F0010F18BFFB1A43F0010318473B
:10012000E016000000170000103A24BF78C878C11C
:10013000FAD8520724BF30C830C144BF04680C60ED
:10014000704700000023002400250026103A28BF35
:1001500078C1FBD8520728BF30C148BF0B60704739
:100160001FB59DE8030000F0A5FB00F073F81FBD6C
:1001700010B500F0D8F810BD00F03BF91146FFF7BC
:10018000EFFF01F08FF900F03FFB03B4FFF7F0FF42
:1001900003BC00F021FD00000948804709480047E2
:1001A000FEE7FEE7FEE7FEE7FEE7FEE7FEE7FEE727
:1001B000FEE7FEE704480549054A064B7047000084
:1001C000DD110008ED00000870010020700D002016
:1001D00070090020700900200FB4044910B503AA6B
:1001E000029800F009F810BC5DF814FB68000020CC
:1001F0007047704770470000074B70B50D467B4451
:1002000000F011F80446284600F020F810B14FF035
:10021000FF3070BD204670BD2711000001694A1CE7
:1002200002610878704700B58FB0CDE90131002137
:10023000059105497944CDE903101146684600F05F
:1002400024F90FB000BD0000E5FFFFFF007B00F0C8
:100250008000704710B54248542100F0E2FA41484E
:10026000542100F0DEFA4048542100F0DAFA3F4908
:100270003B483C4A3F4B08603D490A603A49196097
:10028000531C0365481C1065012008653B48344A2F
:1002900039A1784400F01CFA20B9384878440A386B
:1002A00000F0B8FA37482F4A35A1784400F010FA28
:1002B00020B9344878440A3800F0ACFA32482A4A67
:1002C0002FA1784400F004FA20B92F4878440A3866
:1002D00000F0A0FA40232248DC000021224600F072
:1002E000D3F920B125487844543800F093FA1D48DA
:1002F00022464023002100F0C7F920B1214878446C
:10030000543800F087FA184822461023002100F0E4
:10031000BBF9002806D01C487844BDE81040563888
:1003200000F078BA10BD104870B5006D20F00104DF
:100330000B4800F043FA0B4800F040FA0A4800F07E
:100340003DFA09E0206D20F00105204600F036FA64
:10035000204600F073F82C46002CF3D170BD00004D
:100360001400002068000020BC00002008000020CD
:100370000C00002010000020720000005E1500003C
:10038000770000004A150000361500000EB5CDE9D3
:10039000000100F001FC029069460120ABBE0EBDD9
:1003A00008B5694600900220ABBE08BD1FB58DE8B8
:1003B000070069460520ABBE04B010BD1FB58DE82F
:1003C0000F0069460620ABBEF6E708B56946009007
:1003D0000920ABBE08BD1CB5CDE9000169460A2065
:1003E000ABBE1CBD704708B5694600900C20ABBE83
:1003F00008BD754600F03CFAAE4605006946534616
:1004000020F00700854618B020B5FFF7D3FEBDE801
:1004100020404FF000064FF000074FF000084FF06B
:10042000000B21F00701AC46ACE8C009ACE8C009FC
:10043000ACE8C009ACE8C0098D46704770B5044609
:10044000051F00F01BFA0068002C14BF446870BD43
:10045000002C18BFAC423CBF20466468F8D301684A
:100460000A18AA4218BF456003D12A6805461144FC
:10047000016028684119A1421CBF6C6070BD6168B1
:10048000696021680844286070BD2DE9F041064686
:100490000024D6E90170F5688046304603E0414605
:1004A000B847641C3046A8470028F8D12046BDE86C
:1004B000F0812DE9F04705460C46C86820F420106D
:1004C00040F48000C860800602D5084600F023FB97
:1004D000E06841F282014FF0FF390140022903D068
:1004E000204600F0C1FAB5E000F42041B1F5004F1C
:1004F0000FD1C00306D56168E06A884200D808467B
:10050000606006E02069E06260606069FFF76BFF91
:10051000A061A0680022EEB200280DDAE1688B0528
:100520000AD4C043A06041F490302260E06060686B
:10053000411C61600670A5E0E0689046226040F4CE
:100540000050E060206968BB6069FFF73EFF01274B
:1005500004F12405A0B1A08910F4407F08D0E0691F
:1005600000F0D7F9206118B1E06840F4006016E0AF
:10057000E7612561E06820F4407040F480600EE09F
:10058000E06900F0C6F900282061F1D0E06840F48D
:10059000006010F4407FE06002D140F48070E060C1
:1005A00020696060E06825696FF0010AC1051FD508
:1005B0006168E06A884200D80846411B04D02246A0
:1005C000284600F05BFAF0BBE068010203D5E56263
:1005D000C4E9015854E0691CE1626160E16940F4DA
:1005E0008030491EC4E9021030462E70BDE8F08705
:1005F000010202D500F480320AE06068411C6160AB
:100600000670E0680A2E40F48030E06006D00022D8
:10061000E16A6068814203D90B4602E00122F7E7F4
:100620000346A7895B1B7F0503D4E7699F4200DD72
:10063000E2B1814200D80146E5620F1AC4E90158CF
:10064000002B09DD00E005E022461946284600F0AF
:1006500015FA08B14846C9E747B1A069E562656087
:10066000C01BA061E06840F01000E060E06800029C
:1006700008D56168A069E562491B08446560A0610E
:100680005046B3E73046B1E770B5C468A50713D04C
:10069000650211D4B2F5807F09D0B2F5007F06D093
:1006A000B2F5806F08D1012300F1240106E05D1E40
:1006B0006FF07F46B54201D3012070BD0161C36177
:1006C000416024F470611143C160002070BD0000DE
:1006D0002DE9F0410C4607461646104600F06EF82C
:1006E0002078611C61280AD0722802D077283CD17A
:1006F00002E00125002405E00225042402E008248C
:1007000048F2020511F8010B2B2806D0622809D007
:1007100011F8010C74280AD00BE045F0030544F0F1
:100720000204EFE745F0040544F00104EAE744F071
:10073000100438462146FFF729FE411C15D0002140
:10074000316171604FF40071F560F16170612007F3
:1007500004D530460222002100F00AF9306D40F045
:10076000010030653046BDE8F0810020FBE72DE94F
:10077000F0410D460646104C206DC10704D04108DB
:1007800004D020F00104F7E722460EE0542000F0E8
:10079000C0F807000ED0206D47F001010843542136
:1007A0002065384600F03DF83A4629463046BDE817
:1007B000F0418DE70020D6E7140000202DE9F04736
:1007C00004464FF000094FF0FF37C568D4E90486AE
:1007D000A80707D0204600F07BF93046FFF7E0FD80
:1007E000002802DA3846BDE8F087280502D54046E1
:1007F000FFF724FE4C21204600F013F8206D20F076
:10080000010020654846EEE70446AFF3008020462D
:10081000FFF7BBFC10B500F0A5F9BDE8104000F0F3
:100820009BB94FF0000200B5134694469646203916
:1008300022BFA0E80C50A0E80C50B1F12001BFF499
:10084000F7AF090728BFA0E80C5048BF0CC05DF8FF
:1008500004EB890028BF40F8042B08BF704748BF4D
:1008600020F8022B11F0804F18BF00F8012B7047C1
:100870000048704710010020704700000048704792
:1008800018010020704770477047704738B504461C
:100890000A4600206946AFF30080002808BF38BD33
:1008A00002460099204600F0A4F9012038BD01203D
:1008B00000F0F3B9F8B5AFF30080054600200C4610
:1008C000102000BF0646A819A0420DD9324669463D
:1008D0000020AFF30080070008BF00F0DEF90098A9
:1008E000A04218BF0546C419FFF7C8FF05600746B8
:1008F000F01D20F007004619284600F073F9B442B5
:1009000008BFF8BDA21B31463868BDE8F84000F0CA
:1009100070B970B50646FFF7B1FF056806F10B0028
:1009200020F00704B4429CBF002070BD2B466A68CB
:10093000BAB11068A04210D304F1080188423CBF4C
:100940005068586007D35168101941601168091B3D
:10095000016058601460101D70BD13465268002A73
:10096000E7D121462846FFF791FF0028DED170BD70
:100970002DE9F041044616460D464769007B800785
:100980002ED03846FFF721FD50BB3EB3012E02D0DA
:10099000022E25D104E0204600F045F905441DE073
:1009A0003846FFF720FDE168002841F01001E160C2
:1009B00005DA204600F058F80120BDE8F081C903AF
:1009C0000BD56268E16A914200D81146A2691144D0
:1009D0002269891A814200DD08460544002D01DAAA
:1009E0000220EAE7E16A6068E268814206D2910388
:1009F000E06203D522F4003141F01002A66900271D
:100A0000AE4213DCE16A814201D90B4600E00346A5
:100A100003EB060C2369ACEB030CAC4506DD81420D
:100A200001D98C4600E084469C4505D1A76027602B
:100A300042F02000A5620DE0AD1BE669AE1B8142CD
:100A4000A66000D90846C01A281A206058196060AC
:100A500022F0200003490840E060002084F848703C
:100A6000ABE70000BFCFD7FFC16821F4001141F010
:100A70008001C16000218160016070472DE9F0476D
:100A8000814614460E464FF0FF383248D568576904
:100A9000054209D03846A169FFF79DFC002811DB0B
:100AA0002C48C0430540E5602B463246494638464F
:100AB000FFF77CFCA16920F00042B21A1144002823
:100AC000A16103D02046FFF7CFFF4046BDE8F08785
:100AD00070B504460569C06A6168884200D8084656
:100AE000E16821F42011E160C90312D5A84208D0C1
:100AF0002246411B2846FFF7C1FF10B14FF0FF30DF
:100B000070BD0020E562C4E90150E06820F4803047
:100B1000E060002070BD10B50446C06820F02000E1
:100B2000E060A16AA06988420DD02046FFF7D0FF9F
:100B3000E06820F4405040F01000E060A06AA0613E
:100B40002069E062606044F24001E0688843E06050
:100B500010BD000010000200002801D000F03CB8D9
:100B60007047000010B5014602A000F07DF801209A
:100B700010BD000053494752545245443A20526533
:100B80006469726563743A2063616E2774206F70C4
:100B9000656E3A200000000010B5431C02E010F81A
:100BA000011B71B18107FAD14FF0013202C88C1AD2
:100BB0008C4314EAC211F9D0C01A0A0603D0C01E31
:100BC00010BDC01A10BD0A0401D0801E10BD09025C
:100BD000FCD0401E10BD000001491820ABBEFEE74E
:100BE0002600020000210160C0E9011070471020BA
:100BF0007047034640688C46002818BF88423CBFB7
:100C000003464068F8D318681844884207D00CF1AE
:100C1000030020F00700001D411A521A0146081D6A
:100C20000A60FFF70BBC10B50146C268900703D0FD
:100C3000900607D5886A0AE000F03EF801210160BD
:100C4000881E10BD8B69486818440B69C01A91F85A
:100C500048301BB191F84910401A10BD1103FCD562
:100C60000028FADD401E10BD70B505460C460A206E
:100C700000E06D1C00F018F835B128780028F8D194
:100C800002E0641C00F010F814B120780028F8D1BC
:100C9000BDE870400A2000F007B810B500F010F869
:100CA000BDE81040FFF758BF08B569468DF8000051
:100CB0000320ABBE08BD00000048704710010020B3
:100CC00010B5012805D0002103A0FFF7CDFF0120BA
:100CD00010BD09A1F8E7000053494752544D454D56
:100CE0003A204F7574206F662068656170206D65CD
:100CF0006D6F7279000000003A2048656170206DC8
:100D0000656D6F727920636F7272757074656400BF
:100D1000704700BFFEE710B5012000F0A3F91020D6
:100D200000F036F8022000F041F8002000F08EF9C3
:100D3000002000F0ABF94FF4806000F09BF94FF415
:100D40006011002000F0B4F9012000F0ABF900BF01
:100D5000392000F055F90028FAD0022000F0B6F949
:100D600000BF00F06BF90828FBD1402000F092FA98
:100D700010BD7047704770477047704770477047A5
:100D800070477047704770477047704770477047AB
:100D90000549096821F01001034A116011460968EC
:100DA000014311607047000000200240014600200E
:100DB000034A106800F038000843106070470000D4
:100DC0000020024010B50121084600F009F9012178
:100DD000042000F005F90121064800F09DF81E20CE
:100DE00005490880032088701020C870034800F06F
:100DF00007F810BD00023000040000200008014088
:100E00002DE9F041024600250026002000230024A1
:100E1000002791F803C00CF00F0591F803C00CF007
:100E2000100CBCF1000F03D091F802C04CEA05058C
:100E300091F800C0BCF1000F31D0146800202BE005
:100E40004FF0010C0CFA00F3B1F800C00CEA0306F5
:100E50009E4220D183004FF00F0C0CFA03F7BC43E5
:100E600005FA03FC4CEA040491F803C0BCF1280F16
:100E700006D14FF0010C0CFA00FCC2F814C00AE0D5
:100E800091F803C0BCF1480F05D14FF0010C0CFAEA
:100E900000FCC2F810C0401C0828D1D31460B1F87F
:100EA00000C0BCF1FF0F34DD546800202EE000F1DB
:100EB000080C4FF0010808FA0CF3B1F800C00CEA76
:100EC00003069E4221D183004FF00F0C0CFA03F76A
:100ED000BC4305FA03FC4CEA040491F803C0BCF1DE
:100EE000280F05D100F1080C08FA0CF8C2F814809C
:100EF00091F803C0BCF1480F07D100F1080C4FF086
:100F0000010808FA0CF8C2F81080401C0828CED35B
:100F10005460BDE8F0810000F0B50A4600230024CB
:100F20000021002500F00046B6F1004F02D11D4E11
:100F3000F16901E01B4E7168C0F3034583B200F410
:100F40004016B6F5401F08D121F07061154E766845
:100F500026F07066134F7E6012E000F48016B6F53E
:100F6000801F06D1032606FA05F4A14341F0706103
:100F700006E0460D360103FA06F6B14341F0706112
:100F800022B1460D360103FA06F6314300F0004661
:100F9000B6F1004F02D1034EF16101E0014E7160E4
:100FA000F0BD00000000014002A0FFF715F900BFEE
:100FB000FEE70000486172644661756C74457863B1
:100FC000657074696F6E0D0A00000000704770470D
:100FD0007047704700BFFEE77047704770470000DA
:100FE00029B1064A92690243044B9A6104E0034A1C
:100FF00092698243014B9A617047000000100240E1
:1010000010B501460022002300204A11012A02D116
:10101000094C236806E0022A02D1074C236A01E04A
:10102000054C636A01F01F02012494401C400CB17E
:10103000012000E0002010BD00100240024840687E
:1010400000F00C0070470000001002400146002034
:10105000034A506820F0F0000843506070470000D9
:101060000010024001490860704700000000424241
:101070007047000001460020034A506820F4E060F9
:1010800008435060704700000010024001460020F5
:10109000034A506820F4605040EAC1005060704735
:1010A00000100240014908667047000000004242FB
:1010B00002460020044B586820F47C1042EA0103E9
:1010C0001843014B58607047001002400146002051
:1010D000034A506820F00300084350607047000046
:1010E000001002407047704770477047704710B556
:1010F00000F002F810BD00000CB500200190009037
:101100003348006840F480303149086000BF3048FF
:10111000006800F4003000900198401C0190009895
:1011200018B90198B0F5A06FF1D12948006800F412
:10113000003010B10120009001E0002000900098E4
:10114000012843D12348006840F01000214908607D
:101150000846006820F0030008600846006840F078
:10116000020008601A48406819494860084640680B
:1011700048600846406840F480604860084640681F
:1011800020F47C1048600846406840F4E81048604D
:101190000846006840F08070086000BF0C48006896
:1011A00000F000700028F9D00948406820F00300E2
:1011B000074948600846406840F00200486000BFA8
:1011C0000348406800F00C000828F9D10CBD00006D
:1011D00000100240002002407047000010B5134884
:1011E000006840F001001149086008464068104955
:1011F00008400E494860084600680E4908400B49FF
:1012000008600846006820F48020086008464068AE
:1012100020F4FE0048604FF41F008860FFF767FF6E
:101220004FF000600449086010BD0000001002404B
:101230000000FFF8FFFFF6FE08ED00E07047704782
:1012400070477047704770477047704770477047E6
:1012500000BFFEE77047000001460D4A12884A436E
:101260004FF0E0235A6100229A6101221A6100BF07
:101270004FF0E022106900F001021AB100F4803250
:10128000002AF5D000224FF0E0231A619A617047DE
:10129000020000204FF0E021096921F004014FF025
:1012A000E0221161C21700EB5272C2F3C702074B72
:1012B0001A701946097801EB4102C2EBC1114FF6D1
:1012C000FF7202EAC101024A11807047000000204B
:1012D0000200002030B50446002504E00120FFF79D
:1012E000BBFF681C85B2A542F8DB30BD01460D4A44
:1012F00012784A434FF0E0235A6100229A6101229A
:101300001A6100BF4FF0E022106900F001021AB12B
:1013100000F48032002AF5D000224FF0E0231A6159
:101320009A617047000000208A68002A01DCFFF7FC
:10133000C0B8521E8A604A68C0B2531C4B6010701D
:10134000704770B500240FE02146002000F013F82C
:10135000002505E00021012000F064F8681CC5B2FA
:10136000822DF7DB601CC4B2082CEDDB002108469F
:1013700000F001F870BD70B504460D4604EB440062
:101380004006040E04F00F01002000F04BF8C4F3F7
:10139000021040F01001002000F044F805F00F00AA
:1013A00040F0B001002000F03DF870BD10B5E22122
:1013B000002000F037F86420FFF78CFFAF210020F9
:1013C00000F030F82F21002000F02CF8FFF7B9FFD3
:1013D00010BD000070B50446202C13DB7F2C11DCFF
:1013E000A4F12000C4B200250AE004EB4400064A40
:1013F00002EB4000415D012000F014F8681CC5B20A
:10140000062DF2DB70BD0000B415000810B50446CF
:1014100003E014F8010BFFF7DDFF20780028F8D176
:1014200010BD000070B506460C4600201B49086040
:1014300026B1012019490831086003E0002017494E
:101440000831086000251CE004F0800020B900206D
:101450001249091D086003E001201049091D0860B8
:1014600000200E490C3108600120FFF73FFF0120EA
:101470000B49C1F89002FFF739FF6006040E681CA3
:10148000C5B2082DE0DB054808300068C0430449B8
:10149000C1F88C0201200149086070BD840221421C
:1014A000000021420024FFF736FCFFF78BFCFFF71A
:1014B0007DFF4FF4FA70FFF70DFF2FA0FFF7A6FF97
:1014C0004FF47A70FFF706FF01210020FFF753FF6A
:1014D0002FA0FFF79BFF03210020FFF74CFF2FA059
:1014E000FFF794FF06210020FFF745FF2FA0FFF72D
:1014F0008DFF4FF4FA60FFF7EDFE3BE0062105207B
:10150000FFF739FF4FF47A70B4FBF0F03030C5B21A
:101510002846FFF75FFF4FF47A70B4FBF0F100FB51
:1015200011406421B0FBF1F03030C5B22846FFF71E
:1015300051FF6420B4FBF0F100FB11400A21B0FB25
:10154000F1F000F130052846FFF744FF0A20B4FB14
:10155000F0F100FB114000F130052846FFF73AFF9B
:10156000601C044642F20F71884200D90024C82052
:10157000FFF7B0FEC2E70000546573742047726144
:1015800070686963204C43443132383634000000BF
:1015900042792056752054686169000053616E6776
:1015A00054616F436C75622E4E6574004E756D3AD2
:1015B000200000000000000000000000005F0000AC
:1015C00000000700070000147F147F1400242A7F06
:1015D0002A12002313086462003649552250000085
:1015E0000503000000001C224100000041221C00F5
:1015F0000014083E08140008083E08080000503097
:1016000000000008080808080000606000000020D2
:1016100010080402003E5149453E0000427F400050
:10162000004261514946002141454B3100181412D6
:101630007F10002745454539003C4A4949300001A3
:101640007109050300364949493600064949291EF2
:101650000000363600000000563600000008142254
:101660004100001414141414000041221408000254
:101670000151090600324979413E007E1111117E67
:10168000007F49494936003E41414122007F4141A6
:10169000221C007F49494941007F09090901003E98
:1016A0004149497A007F0808087F0000417F4100D6
:1016B000002040413F01007F08142241007F40404C
:1016C0004040007F020C027F007F0408107F003E34
:1016D0004141413E007F09090906003E4151215E1A
:1016E000007F091929460046494949310001017F17
:1016F0000101003F4040403F001F2040201F003FAD
:101700004038403F0063140814630007087008075E
:1017100000615149454300007F4141000002040837
:101720001020000041417F0000040201020400403B
:10173000404040400000010204000020545454780E
:10174000007F48444438003844444420003844442E
:10175000487F00385454541800087E090102000CD8
:101760005252523E007F080404780000447D40003D
:10177000002040443D00007F102844000000417FCD
:101780004000007C04180478007C080404780038C9
:1017900044444438007C1414140800081414187CC1
:1017A000007C0804040800485454542000043F44BA
:1017B0004020003C4040207C001C2040201C003C7D
:1017C0004030403C004428102844000C5050503C0D
:1017D000004464544C440000083641000000007F7F
:1017E00000000000413608000010080810080078CA
:1017F000464146783A7474003A7474003A7474003E
:101800002018000800000020140000002801000833
:1018100034180008140000205C0D0000440100088A
:1018200000000000000000000000000000000000B8
:0418300000000000B4
:04000005080000ED02
:00000001FF
